{
  "_format": "hh-sol-artifact-1",
  "contractName": "DecentralizedLearningContracts",
  "sourceName": "contracts/Counter.sol",
  "abi": [
    {
      "inputs": [],
      "stateMutability": "nonpayable",
      "type": "constructor"
    },
    {
      "anonymous": false,
      "inputs": [
        {
          "indexed": true,
          "internalType": "address",
          "name": "learner",
          "type": "address"
        },
        {
          "indexed": false,
          "internalType": "uint256",
          "name": "stakeAmount",
          "type": "uint256"
        },
        {
          "indexed": false,
          "internalType": "uint256",
          "name": "deadline",
          "type": "uint256"
        }
      ],
      "name": "GoalCreated",
      "type": "event"
    },
    {
      "anonymous": false,
      "inputs": [
        {
          "indexed": true,
          "internalType": "address",
          "name": "learner",
          "type": "address"
        },
        {
          "indexed": true,
          "internalType": "address",
          "name": "validator",
          "type": "address"
        },
        {
          "indexed": false,
          "internalType": "bool",
          "name": "success",
          "type": "bool"
        }
      ],
      "name": "GoalValidated",
      "type": "event"
    },
    {
      "anonymous": false,
      "inputs": [
        {
          "indexed": true,
          "internalType": "address",
          "name": "learner",
          "type": "address"
        },
        {
          "indexed": false,
          "internalType": "uint256",
          "name": "rewardAmount",
          "type": "uint256"
        }
      ],
      "name": "RewardClaimed",
      "type": "event"
    },
    {
      "anonymous": false,
      "inputs": [
        {
          "indexed": true,
          "internalType": "address",
          "name": "learner",
          "type": "address"
        },
        {
          "indexed": false,
          "internalType": "uint256",
          "name": "forfeitedAmount",
          "type": "uint256"
        }
      ],
      "name": "StakeForfeited",
      "type": "event"
    },
    {
      "inputs": [],
      "name": "admin",
      "outputs": [
        {
          "internalType": "address",
          "name": "",
          "type": "address"
        }
      ],
      "stateMutability": "view",
      "type": "function"
    },
    {
      "inputs": [
        {
          "internalType": "uint256",
          "name": "_amount",
          "type": "uint256"
        }
      ],
      "name": "adminWithdraw",
      "outputs": [],
      "stateMutability": "nonpayable",
      "type": "function"
    },
    {
      "inputs": [
        {
          "internalType": "address",
          "name": "",
          "type": "address"
        }
      ],
      "name": "balances",
      "outputs": [
        {
          "internalType": "uint256",
          "name": "",
          "type": "uint256"
        }
      ],
      "stateMutability": "view",
      "type": "function"
    },
    {
      "inputs": [],
      "name": "claimReward",
      "outputs": [],
      "stateMutability": "nonpayable",
      "type": "function"
    },
    {
      "inputs": [
        {
          "internalType": "uint256",
          "name": "_stakeAmount",
          "type": "uint256"
        },
        {
          "internalType": "uint256",
          "name": "_deadline",
          "type": "uint256"
        },
        {
          "internalType": "address",
          "name": "_validator",
          "type": "address"
        }
      ],
      "name": "createLearningGoal",
      "outputs": [],
      "stateMutability": "payable",
      "type": "function"
    },
    {
      "inputs": [
        {
          "internalType": "address",
          "name": "",
          "type": "address"
        }
      ],
      "name": "learningGoals",
      "outputs": [
        {
          "internalType": "uint256",
          "name": "stakeAmount",
          "type": "uint256"
        },
        {
          "internalType": "uint256",
          "name": "deadline",
          "type": "uint256"
        },
        {
          "internalType": "bool",
          "name": "isCompleted",
          "type": "bool"
        },
        {
          "internalType": "bool",
          "name": "isValidated",
          "type": "bool"
        },
        {
          "internalType": "address",
          "name": "validator",
          "type": "address"
        }
      ],
      "stateMutability": "view",
      "type": "function"
    },
    {
      "inputs": [
        {
          "internalType": "address",
          "name": "_learner",
          "type": "address"
        },
        {
          "internalType": "bool",
          "name": "_isSuccessful",
          "type": "bool"
        }
      ],
      "name": "validateLearningGoal",
      "outputs": [],
      "stateMutability": "nonpayable",
      "type": "function"
    },
    {
      "stateMutability": "payable",
      "type": "receive"
    }
  ],
  "bytecode": "0x6080604052348015600f57600080fd5b5033600160006101000a81548173ffffffffffffffffffffffffffffffffffffffff021916908373ffffffffffffffffffffffffffffffffffffffff160217905550611733806100606000396000f3fe6080604052600436106100745760003560e01c8063acafc67f1161004e578063acafc67f1461010f578063b88a802f1461012b578063f3c8057c14610142578063f851a440146101835761007b565b806327e235e314610080578063368c673f146100bd5780637c5b4a37146100e65761007b565b3661007b57005b600080fd5b34801561008c57600080fd5b506100a760048036038101906100a29190610e5e565b6101ae565b6040516100b49190610ea4565b60405180910390f35b3480156100c957600080fd5b506100e460048036038101906100df9190610ef7565b6101c6565b005b3480156100f257600080fd5b5061010d60048036038101906101089190610f63565b6105fe565b005b61012960048036038101906101249190610f90565b61085a565b005b34801561013757600080fd5b50610140610b9b565b005b34801561014e57600080fd5b5061016960048036038101906101649190610e5e565b610d65565b60405161017a959493929190611001565b60405180910390f35b34801561018f57600080fd5b50610198610dd5565b6040516101a59190611054565b60405180910390f35b60026020528060005260406000206000915090505481565b813373ffffffffffffffffffffffffffffffffffffffff166000808373ffffffffffffffffffffffffffffffffffffffff1673ffffffffffffffffffffffffffffffffffffffff16815260200190815260200160002060020160029054906101000a900473ffffffffffffffffffffffffffffffffffffffff1673ffffffffffffffffffffffffffffffffffffffff1614610296576040517f08c379a000000000000000000000000000000000000000000000000000000000815260040161028d906110cc565b60405180910390fd5b60008060008573ffffffffffffffffffffffffffffffffffffffff1673ffffffffffffffffffffffffffffffffffffffff16815260200190815260200160002090508060020160019054906101000a900460ff161561032a576040517f08c379a000000000000000000000000000000000000000000000000000000000815260040161032190611138565b60405180910390fd5b8060010154421115610371576040517f08c379a0000000000000000000000000000000000000000000000000000000008152600401610368906111a4565b60405180910390fd5b60018160020160016101000a81548160ff021916908315150217905550828160020160006101000a81548160ff02191690831515021790555082156104d15760008160000154905080600260003073ffffffffffffffffffffffffffffffffffffffff1673ffffffffffffffffffffffffffffffffffffffff168152602001908152602001600020600082825461040891906111f3565b9250508190555080600260008773ffffffffffffffffffffffffffffffffffffffff1673ffffffffffffffffffffffffffffffffffffffff168152602001908152602001600020600082825461045e9190611227565b925050819055503373ffffffffffffffffffffffffffffffffffffffff168573ffffffffffffffffffffffffffffffffffffffff167fb142d25709011086d6e5cb043d34633f680bb7a5b822bc94cef8db10f854576960016040516104c3919061125b565b60405180910390a3506105f8565b60008160000154905080600260003073ffffffffffffffffffffffffffffffffffffffff1673ffffffffffffffffffffffffffffffffffffffff168152602001908152602001600020600082825461052991906111f3565b925050819055508060026000600160009054906101000a900473ffffffffffffffffffffffffffffffffffffffff1673ffffffffffffffffffffffffffffffffffffffff1673ffffffffffffffffffffffffffffffffffffffff16815260200190815260200160002060008282546105a19190611227565b925050819055508473ffffffffffffffffffffffffffffffffffffffff167f988cc195bf4109cc40ca94d3dd5bb728d9a0591ea68a37dd408d522843581db1826040516105ee9190610ea4565b60405180910390a2505b50505050565b600160009054906101000a900473ffffffffffffffffffffffffffffffffffffffff1673ffffffffffffffffffffffffffffffffffffffff163373ffffffffffffffffffffffffffffffffffffffff161461068e576040517f08c379a0000000000000000000000000000000000000000000000000000000008152600401610685906112e8565b60405180910390fd5b8060026000600160009054906101000a900473ffffffffffffffffffffffffffffffffffffffff1673ffffffffffffffffffffffffffffffffffffffff1673ffffffffffffffffffffffffffffffffffffffff168152602001908152602001600020541015610732576040517f08c379a000000000000000000000000000000000000000000000000000000000815260040161072990611354565b60405180910390fd5b8060026000600160009054906101000a900473ffffffffffffffffffffffffffffffffffffffff1673ffffffffffffffffffffffffffffffffffffffff1673ffffffffffffffffffffffffffffffffffffffff16815260200190815260200160002060008282546107a391906111f3565b9250508190555060003373ffffffffffffffffffffffffffffffffffffffff16826040516107d0906113a5565b60006040518083038185875af1925050503d806000811461080d576040519150601f19603f3d011682016040523d82523d6000602084013e610812565b606091505b5050905080610856576040517f08c379a000000000000000000000000000000000000000000000000000000000815260040161084d90611406565b60405180910390fd5b5050565b82341461089c576040517f08c379a000000000000000000000000000000000000000000000000000000000815260040161089390611498565b60405180910390fd5b600073ffffffffffffffffffffffffffffffffffffffff168173ffffffffffffffffffffffffffffffffffffffff160361090b576040517f08c379a000000000000000000000000000000000000000000000000000000000815260040161090290611504565b60405180910390fd5b42821161094d576040517f08c379a000000000000000000000000000000000000000000000000000000000815260040161094490611570565b60405180910390fd5b60008060003373ffffffffffffffffffffffffffffffffffffffff1673ffffffffffffffffffffffffffffffffffffffff16815260200190815260200160002060000154146109d1576040517f08c379a00000000000000000000000000000000000000000000000000000000081526004016109c8906115dc565b60405180910390fd5b6040518060a001604052808481526020018381526020016000151581526020016000151581526020018273ffffffffffffffffffffffffffffffffffffffff168152506000803373ffffffffffffffffffffffffffffffffffffffff1673ffffffffffffffffffffffffffffffffffffffff168152602001908152602001600020600082015181600001556020820151816001015560408201518160020160006101000a81548160ff02191690831515021790555060608201518160020160016101000a81548160ff02191690831515021790555060808201518160020160026101000a81548173ffffffffffffffffffffffffffffffffffffffff021916908373ffffffffffffffffffffffffffffffffffffffff16021790555090505082600260003073ffffffffffffffffffffffffffffffffffffffff1673ffffffffffffffffffffffffffffffffffffffff1681526020019081526020016000206000828254610b3f9190611227565b925050819055503373ffffffffffffffffffffffffffffffffffffffff167f585021382a707927ff376ee2d95481c8ae02449a616bbff2c6d68fff56cfb15b8484604051610b8e9291906115fc565b60405180910390a2505050565b6000600260003373ffffffffffffffffffffffffffffffffffffffff1673ffffffffffffffffffffffffffffffffffffffff16815260200190815260200160002054905060008111610c22576040517f08c379a0000000000000000000000000000000000000000000000000000000008152600401610c1990611671565b60405180910390fd5b6000600260003373ffffffffffffffffffffffffffffffffffffffff1673ffffffffffffffffffffffffffffffffffffffff1681526020019081526020016000208190555060003373ffffffffffffffffffffffffffffffffffffffff1682604051610c8d906113a5565b60006040518083038185875af1925050503d8060008114610cca576040519150601f19603f3d011682016040523d82523d6000602084013e610ccf565b606091505b5050905080610d13576040517f08c379a0000000000000000000000000000000000000000000000000000000008152600401610d0a906116dd565b60405180910390fd5b3373ffffffffffffffffffffffffffffffffffffffff167f106f923f993c2149d49b4255ff723acafa1f2d94393f561d3eda32ae348f724183604051610d599190610ea4565b60405180910390a25050565b60006020528060005260406000206000915090508060000154908060010154908060020160009054906101000a900460ff16908060020160019054906101000a900460ff16908060020160029054906101000a900473ffffffffffffffffffffffffffffffffffffffff16905085565b600160009054906101000a900473ffffffffffffffffffffffffffffffffffffffff1681565b600080fd5b600073ffffffffffffffffffffffffffffffffffffffff82169050919050565b6000610e2b82610e00565b9050919050565b610e3b81610e20565b8114610e4657600080fd5b50565b600081359050610e5881610e32565b92915050565b600060208284031215610e7457610e73610dfb565b5b6000610e8284828501610e49565b91505092915050565b6000819050919050565b610e9e81610e8b565b82525050565b6000602082019050610eb96000830184610e95565b92915050565b60008115159050919050565b610ed481610ebf565b8114610edf57600080fd5b50565b600081359050610ef181610ecb565b92915050565b60008060408385031215610f0e57610f0d610dfb565b5b6000610f1c85828601610e49565b9250506020610f2d85828601610ee2565b9150509250929050565b610f4081610e8b565b8114610f4b57600080fd5b50565b600081359050610f5d81610f37565b92915050565b600060208284031215610f7957610f78610dfb565b5b6000610f8784828501610f4e565b91505092915050565b600080600060608486031215610fa957610fa8610dfb565b5b6000610fb786828701610f4e565b9350506020610fc886828701610f4e565b9250506040610fd986828701610e49565b9150509250925092565b610fec81610ebf565b82525050565b610ffb81610e20565b82525050565b600060a0820190506110166000830188610e95565b6110236020830187610e95565b6110306040830186610fe3565b61103d6060830185610fe3565b61104a6080830184610ff2565b9695505050505050565b60006020820190506110696000830184610ff2565b92915050565b600082825260208201905092915050565b7f4e6f742061737369676e65642061732076616c696461746f7200000000000000600082015250565b60006110b660198361106f565b91506110c182611080565b602082019050919050565b600060208201905081810360008301526110e5816110a9565b9050919050565b7f476f616c20616c72656164792076616c69646174656400000000000000000000600082015250565b600061112260168361106f565b915061112d826110ec565b602082019050919050565b6000602082019050818103600083015261115181611115565b9050919050565b7f476f616c20646561646c696e6520686173207061737365640000000000000000600082015250565b600061118e60188361106f565b915061119982611158565b602082019050919050565b600060208201905081810360008301526111bd81611181565b9050919050565b7f4e487b7100000000000000000000000000000000000000000000000000000000600052601160045260246000fd5b60006111fe82610e8b565b915061120983610e8b565b9250828203905081811115611221576112206111c4565b5b92915050565b600061123282610e8b565b915061123d83610e8b565b9250828201905080821115611255576112546111c4565b5b92915050565b60006020820190506112706000830184610fe3565b92915050565b7f4f6e6c792061646d696e2063616e20706572666f726d2074686973206163746960008201527f6f6e000000000000000000000000000000000000000000000000000000000000602082015250565b60006112d260228361106f565b91506112dd82611276565b604082019050919050565b60006020820190508181036000830152611301816112c5565b9050919050565b7f496e73756666696369656e742061646d696e2062616c616e6365000000000000600082015250565b600061133e601a8361106f565b915061134982611308565b602082019050919050565b6000602082019050818103600083015261136d81611331565b9050919050565b600081905092915050565b50565b600061138f600083611374565b915061139a8261137f565b600082019050919050565b60006113b082611382565b9150819050919050565b7f4661696c656420746f2077697468647261770000000000000000000000000000600082015250565b60006113f060128361106f565b91506113fb826113ba565b602082019050919050565b6000602082019050818103600083015261141f816113e3565b9050919050565b7f5374616b6520616d6f756e74206d757374206d617463682073656e742076616c60008201527f7565000000000000000000000000000000000000000000000000000000000000602082015250565b600061148260228361106f565b915061148d82611426565b604082019050919050565b600060208201905081810360008301526114b181611475565b9050919050565b7f56616c696461746f7220616464726573732063616e6e6f74206265207a65726f600082015250565b60006114ee60208361106f565b91506114f9826114b8565b602082019050919050565b6000602082019050818103600083015261151d816114e1565b9050919050565b7f446561646c696e65206d75737420626520696e20746865206675747572650000600082015250565b600061155a601e8361106f565b915061156582611524565b602082019050919050565b600060208201905081810360008301526115898161154d565b9050919050565b7f4578697374696e6720676f616c20696e2070726f677265737300000000000000600082015250565b60006115c660198361106f565b91506115d182611590565b602082019050919050565b600060208201905081810360008301526115f5816115b9565b9050919050565b60006040820190506116116000830185610e95565b61161e6020830184610e95565b9392505050565b7f4e6f2072657761726420746f20636c61696d0000000000000000000000000000600082015250565b600061165b60128361106f565b915061166682611625565b602082019050919050565b6000602082019050818103600083015261168a8161164e565b9050919050565b7f4661696c656420746f2073656e64207265776172640000000000000000000000600082015250565b60006116c760158361106f565b91506116d282611691565b602082019050919050565b600060208201905081810360008301526116f6816116ba565b905091905056fea2646970667358221220ea4b21467d4a99901dee3ef8cc41ed9ea678b430b55dd202863eab22f44fce9064736f6c634300081b0033",
  "linkReferences": {},
  "deployedLinkReferences": {}
}